:03000000020A935E
:0C0A9300787FE4F6D8FD758140020ADA95
:030B7800011D302C
:100CF900EF1FAA0670011E4A6013E4FCFDC3ED94C0
:0D0D0900E8EC940350EA0DBD00010C80F0F1
:010D160022BA
:100C1600E4F521F522D2B1758EC0120D17120D6BB7
:100C2600120D5812000E120CADC2B27F3F7E00129A
:100C36000B37C2A3C2A2C282C2B4C2B37FF47E0182
:0B0C4600120CF912051212075480F87E
:100B7B00013A00013800013700013B00C102C101FD
:100B8B00013900013C00C100013100013200013389
:0A0B9B0000013400013500013600AE
:100BCB007C007D64120283EE703EEF1202E60C1085
:100BDB00000C0D050C0A0A0C070F0C04150C01195F
:100BEB000BFE1E0BFB230BF82900000C137F0122BD
:100BFB007F02227F03227F04227F05227F06227F32
:0A0C0B0007227F08227F09227F00E4
:010C150022BC
:1009DC00120CD5AC06AD07E41201C9120C84120B33
:1009EC00CB8F3285323AE53114601E147003020A43
:1009FC007B147003020A8324036003020A92E53A13
:100A0C007003020A9275310122E53A7003F5312226
:100A1C00753102853238E53214B40900504D900A14
:100A2C003875F003A4C58325F0C58373020A7302DD
:100A3C000A6F020A6B020A67020A63020A5F020A61
:100A4C005B020A57020A537537092275370822755B
:100A5C00370722753706227537052275370422753C
:100A6C003703227537022275370122E4F53722E568
:100A7C003A701375310322E53A7005F532F53122DF
:060A8C00E4F537753102AC
:010A92002241
:10065D00E537B40A00400302075090066EF82828CB
:10066D007302075302068C0206B20206CB0206E3A2
:10067D000206FF02071402072F02073A020745C2BE
:10068D00B2D200E512C39414400E753B01E4F5128D
:10069D00C2007405253EF53EE53EC3943C406675AB
:1006AD003E3C020750E4F537C2B2753B02E53FC34D
:1006BD0094094005753F098002053F020750E4F596
:1006CD0037C2B2753B03E540C3941E400575401E0D
:1006DD00804B05408047E4F537C2B2753B04E53EDB
:1006ED00D394005005E4F53E800674FB253EF53E9F
:1006FD008051E4F537C2B2E53FD394005005E4F5DF
:10070D003F8002153F803CE4F537C2B2753B06E5EC
:10071D0040D394005005E4F54080021540854039E2
:10072D008021E4F537C2B2753B07F53722E4F53782
:10073D00C2B2753B08F53722E4F537C2B2753B09F5
:07074D00F53722E4F5372225
:10051200E53B14B40900400302065C90052B75F01C
:1005220003A4C58325F0C5837302054602055F0255
:10053200057802065C0205B10205CB02061002062E
:1005420029020642D201752AFF752B00752C067B03
:10055200FF7A0079037DD07C077F0A8067D201751C
:100562002AFF752B0D752C9B7BFF7A0D79987D06E2
:100572007C007F06804ED202752AFF752B0D752CEA
:100582009B7BFF7A0D79987D147C007F147E00128C
:100592000C51C3E5199432E5189400500302065C2D
:1005A2000533E533953C4003E4F533E533804E757E
:1005B2002AFF752B0D752C9B7BFF7A0D79987DC8D0
:1005C2007C007FC87E00020659D202752AFF752B75
:1005D2000D752C9B7BFF7A0D79987D2C7C017F2CED
:1005E2007E01120C51C3E5199432E5189400406A59
:1005F2000535E535953C4003E4F535E535900412C3
:1006020093F4FD7F80120D7BE4F518F51922752A0B
:10061200FF752B0D752C9B7BFF7A0D79987D907C55
:10062200017F907E018030752AFF752B0D752C9B02
:100632007BFF7A0D79987DF47C017FF47E0180172F
:10064200752AFF752B00752C067BFF7A0079037DD6
:0A065200587C027F587E02120C5102
:01065C00227B
:10075400E539B41F00400302083D900765F82828D6
:10076400730207C20207C60207CA0207CE0207D2F3
:100774000207D60207DA0207DE0207E20207E602F0
:1007840007EA0207EE0207F20207F60207FA020777
:10079400FE02080202080602080A02080E020812F3
:1007A40002081602081A02081E020822020826027B
:1007B400082A02082E02083202083602083AE4F532
:1007C4003C22753C0822753C1022753C1822753C6D
:1007D4002022753C2822753C3022753C3822753C19
:1007E4004022753C4822753C5022753C6022753C81
:1007F4006A22753C7022753C7822753C8022753CD7
:100804008822753C9022753C9822753CA022753C48
:10081400A822753CB022753CB822753CC022753CB8
:10082400C822753CD022753CD822753CE022753C28
:0A083400E822753CF022753CF82222
:0D000E0075C56143C58043C50853C5EF2289
:100CD500E4FFFEF52DF52E12000EE5C530E4FBAF61
:100CE500C6EF75F004A4ADBE7C002DFFEC35F0FE1B
:030CF50053C5EFF5
:010CF80022D9
:080C84008F308E2F8D2E8C2D78
:100C8C007F007E407D9C7C45AB30AA2FA92EA82DE1
:100C9C0012001EE4FBFA798078441201271202023A
:010CAC002225
:100BA500011A0002180000011200020C00000208E0
:060BB5000000020A00002E
:100D6B00758910758CF8758A30D2ABD2AFD28E22C2
:100C51008E0E8F0F8C1B8D1CE516B4010CE4F5165E
:100C61008B138A14891512030CE517B40112E4F5EC
:100C710017AB2AAA2BA92C8B138A14891512030CE2
:030C8100C201228B
:03001B00020923B4
:10092300C0E0C0F0C083C082C0D075D000C000C09A
:0D09330001C002C003C004C005C006C0071B
:100940000509E50970020508C39414E50894004000
:100950000C7508007509001209DC12065D050DE52D
:100960000D7002050C12083E3000020512E50F253D
:100970001CFFE50E351BFE0511E51170020510C3C5
:100980009FE5109E4006751000751100C3E5119596
:100990000FE510950E50057516018003751701C3FC
:1009A000E50B9488E50A94134004D2A68002C2A6FF
:1009B0003002080519E51970020518758DF8758B58
:0109C0003006
:1009C100D007D006D005D004D003D002D001D0008A
:0B09D100D0D0D082D083D0F0D0E03234
:03000300D2B22254
:03000600C2B22261
:030D9800C2B122C3
:030D9B00D2B122B0
:100D4400003F0006005B004F0066006D007D000759
:040D5400007F006FAD
:0C0BBB00013E1E013F00014000013D0111
:100B1F0075F00A84E5F025E02444F582E4340DF500
:080B2F0083E493FE740193FFBF
:100B3700C296C297C2A0C2A1C295C283C294C293F1
:100B4700EF30E002D283EF30E102D295EF30E202DC
:100B5700D296EF30E302D2A1EF30E402D297EF3022
:100B6700E502D294EF30E602D293EF30E702D2A04B
:010B7700225B
:10083E00C3E50D9403E50C94004025E53D6401707D
:10084E001FC2A3C2A2C282C2B4C2B3E53E75F00AF1
:10085E0084120B25E4F50CF50D753D020000D2A2B5
:10086E00C3E50D9403E50C94004021E53D64027050
:10087E001BC2A3C2A2C282C2B4C2B3E53E120B1FF8
:10088E00E4F50CF50D753D030000D2A3C3E50D9400
:10089E0003E50C94004021E53D6403701BC2A3C226
:1008AE00A2C282C2B4C2B3E53F120B25E4F50CF529
:1008BE000D753D040000D282C3E50D9403E50C9442
:1008CE00004025E53D6404701FC2A3C2A2C282C2CD
:1008DE00B4C2B3E54075F00A84120B25E4F50CF5AD
:1008EE000D753D050000D2B4C3E50D9403E50C94DF
:1008FE00004021E53D6405701BC2A3C2A2C282C2A4
:10090E00B4C2B3E540120B1FE4F50CF50D753D01B5
:04091E000000D2B350
:0109220022B2
:030BC700011EFF0D
:100D58005389F0438902AF1E8F8A8F8CC2A9D2AF04
:030D6800D28C2208
:03000B00020D2EB5
:100D2E00C0D075D000C007C28CAF1E8F8A8F8CD2F8
:060D3E008CD007D0D0327A
:100D1700E4F5937594FE7591027592FDF5957596B8
:070D2700FFF5B175B2FC22DB
:10031200FFFEFDFCFBFAF9F8F7F6F5F4F3F2F1F063
:10032200EFEEEDECEBEAE9E8E7E6E5E4E3E2E1E053
:10033200DFDEDDDCDBDAD9D8D7D6D5D4D3D2D1D043
:10034200CFCECDCCCBCAC9C8C7C6C5C4C3C2C1C033
:10035200BFBEBDBCBBBAB9B8B7B6B5B4B3B2B1B023
:10036200AFAEADACABAAA9A8A7A6A5A4A3A2A1A013
:100372009F9E9D9C9B9A9998979695949392919003
:100382008F8E8D8C8B8A89888786858483828180F3
:100392007F7E7D7C7B7A79787776757473727170E3
:1003A2006F6E6D6C6B6A69686766656463626160D3
:1003B2005F5E5D5C5B5A59585756555453525150C3
:1003C2004F4E4D4C4B4A49484746454443424140B3
:1003D2003F3E3D3C3B3A39383736353433323130A3
:1003E2002F2E2D2C2B2A2928272625242322212093
:1003F2001F1E1D1C1B1A1918171615141312111083
:100402000F0E0D0C0B0A0908070605040302010072
:10041200FFFEFDFCFBFAF9F8F7F6F5F4F3F2F1F062
:10042200EFEEEDECEBEAE9E8E7E6E5E4E3E2E1E052
:10043200DFDEDDDCDBDAD9D8D7D6D5D4D3D2D1D042
:10044200CFCECDCCCBCAC9C8C7C6C5C4C3C2C1C032
:10045200BFBEBDBCBBBAB9B8B7B6B5B4B3B2B1B022
:10046200AFAEADACABAAA9A8A7A6A5A4A3A2A1A012
:100472009F9E9D9C9B9A9998979695949392919002
:100482008F8E8D8C8B8A89888786858483828180F2
:100492007F7E7D7C7B7A79787776757473727170E2
:1004A2006F6E6D6C6B6A69686766656463626160D2
:1004B2005F5E5D5C5B5A59585756555453525150C2
:1004C2004F4E4D4C4B4A49484746454443424140B2
:1004D2003F3E3D3C3B3A39383736353433323130A2
:1004E2002F2E2D2C2B2A2928272625242322212092
:1004F2001F1E1D1C1B1A1918171615141312111082
:100502000F0E0D0C0B0A0908070605040302010071
:100CAD0075D904E4F5D8F5E9F5F975EA8075FA809A
:100CBD0075DA4275EB0875FB0875DA4275ED077547
:080CCD00FD0775DD42D2DE22B5
:0B0D7B008F8A8F8CAF058FEA8FFA2261
:090D86008F1EAF058FED8FFD22D9
:090D8F008F1EAF058FEB8FFB22D4
:10001E00EC4D6011E8497017ED33EC3304600DE4DC
:10002E00FCFFFEFD22E933E8330470F802026E1283
:10003E00023958046009E4CC248150062850090284
:10004E000278284003020275C0E0EB4A7044B98082
:10005E0006D0E0FB020264EF4E701CBD8008EBFF81
:10006E00EAFEE9FD80EBE98DF0A4FEE5F002010762
:10007E00E9CDF9EAFEEBFFEF89F0A4FCE5F0CE89BD
:10008E00F0A42EFFE435F0CD89F0A42DFEE435F07A
:10009E008067EF4E7005BD80D780C3EF8BF0A4ACA8
:1000AE00F0EE8BF0A42CFCE435F0F8EF8AF0A42CE3
:1000BE00E5F038FCE433CB8DF0A42CFCE5F03BF8F6
:1000CE00EE8AF0A42CFCE5F038F8E433CF89F0A4E6
:1000DE002CFCE5F038CF3400CE89F0A42FFFE5F0EC
:1000EE003EFEE433C98DF0A42EFEE5F039CD8AF044
:1000FE00A42FFFE5F03EFEE43DFD33D0E0FB5007BC
:10010E000BBB000F020278EC2CFCEF33FFEE33FE3C
:06011E00ED33FD0202506A
:10012400020278EC5D046005E85904700302026E73
:10013400120239580460F6EC4860F2EC7004FDFEDB
:10014400FF22C860DB2481C85009C39860025006AE
:100154000202759850CAF582E9294B4A7005AB82B0
:1001640002026475F0007C1A7880C3EF9BEE9AED6E
:1001740099400DC3EF9BFFEE9AFEED99FDE842F026
:10018400DC23ACF0D0E0FFD0E0FED0E0FDAB822079
:10019400E7101BEB60BAEC2CFCEF33FFEE33FEED03
:1001A40033FD020250E803F830E705C0F075F000B3
:1001B400EF2FFFEE33FEED33FD40B830E7C280AAE7
:1001C40075F020800E75F010800575F0087D007EB6
:1001D400007F003392D530D5031202D8EC3340109F
:1001E400EF33FFEE33FEED33FDEC33FCD5F0ED22BF
:0E01F400E5F0247EA2D513CC92E7CDCEFF22FB
:10020200EDD2E7CD33EC3392D524814006E4FFFEF4
:10021200FDFC22FCE4CFCECDCC24E0501174FF8053
:10022200EDC3CC13CCCD13CDCE13CECF13CF0470F0
:07023200F030D5DE0202D816
:10023900E9D2E7C933E833F892D5EDD2E7CD33EC0B
:0702490033FC5002B2D52284
:10025000EC30E7100FBF000C0EBE00080DBD00040F
:100260000BEB6014A2D5EB13FCED92E7FD2274FFBB
:10027000FCFDFEFF22E480F8A2D574FF13FC7D8014
:03028000E480EF28
:100A9F00020C16E493A3F8E493A34003F68001F24B
:100AAF0008DFF48029E493A3F85407240CC8C33358
:100ABF00C4540F4420C8834004F456800146F6DF27
:100ACF00E4800B0102040810204080900B78E47E34
:100ADF00019360BCA3FF543F30E509541FFEE4931C
:100AEF00A360010ECF54C025E060A840B8E493A3E3
:100AFF00FAE493A3F8E493A3C8C582C8CAC583CA0E
:100B0F00F0A3C8C582C8CAC583CADFE9DEE780BEC5
:010BCA00002A
:10028300BC000BBE0029EF8DF084FFADF022E4CC5F
:10029300F875F008EF2FFFEE33FEEC33FCEE9DEC28
:1002A300984005FCEE9DFE0FD5F0E9E4CEFD22ED6E
:1002B300F8F5F0EE8420D21CFEADF075F008EF2FB8
:1002C300FFED33FD4007985006D5F0F222C398FDA9
:0502D3000FD5F0EA2246
:0E02D800C3E49FFFE49EFEE49DFDE49CFC2237
:1002E600D083D082F8E4937012740193700DA3A3A7
:1002F60093F8740193F5828883E4737402936860BB
:06030600EFA3A3A380DFBA
:06030C008A838982E4737C
:00000001FF
